:020000040800F2
:1000000000020020C1000008A141000841AD000825
:10001000913800089138000891380008913800089C
:10002000913800089138000891380008913800088C
:10003000913800089138000891380008913800087C
:1000400091380008315E0008715E000891380008A0
:1000500091380008E15C0008215D0008615D00083E
:1000600091380008215A0008A157000811580008CB
:10007000E11001089138000891380008315B000850
:10008000416600089138000891380008913800084E
:10009000913800089138000891380008F160000894
:1000A00091380008913800089138000871670008FD
:1000B00091380008913800089138000881680008DC
:1000C00072B6224880F30988022080F31488BFF3B7
:1000D0006F8F03F095FB06F033FF1D481D491E4A44
:1000E000914202DA08600431FAE71C49174A91424A
:1000F00002DA08600431FAE719491A4A1A4B9A429F
:1001000004DA0868106004310432F8E70020174967
:10011000174A914202DA08600431FAE703F088FBDB
:1001200003F076FB134C144DAC4203DA2168884788
:100130000434F9E70AF054FD104C114DAC4203DAD7
:10014000216888470434F9E70E4908470004002075
:1001500055555555000000200002002000020020E7
:100160005C6D010800040020C8160020C81600209D
:10017000B4380020C0000008C0000008C00000081B
:10018000C000000821380008000000000000000046
:10019000F0B544464D4656465F46F0B46B46CB60DC
:1001A000C3689D46F0BCA046A946B246BB46F0BD1A
:1001B00062B6281CA047002003F072FE03F098FDF1
:1001C000014A024B1360FEE704ED00E000000080EE
:1001D000002243088B4274D303098B425FD3030A86
:1001E0008B4244D3030B8B4228D3030C8B420DD399
:1001F000FF22090212BA030C8B4202D31212090227
:1002000065D0030B8B4219D300E0090AC30B8B4264
:1002100001D3CB03C01A5241830B8B4201D38B0312
:10022000C01A5241430B8B4201D34B03C01A5241B7
:10023000030B8B4201D30B03C01A5241C30A8B42FA
:1002400001D3CB02C01A5241830A8B4201D38B02E5
:10025000C01A5241430A8B4201D34B02C01A524189
:10026000030A8B4201D30B02C01A5241CDD2C309FB
:100270008B4201D3CB01C01A524183098B4201D377
:100280008B01C01A524143098B4201D34B01C01A62
:10029000524103098B4201D30B01C01A5241C308DA
:1002A0008B4201D3CB00C01A524183088B4201D349
:1002B0008B00C01A524143088B4201D34B00C01A35
:1002C0005241411A00D20146524110467047FFE7A1
:1002D00001B5002000F0FCF802BDC0460029F7D0AF
:1002E00076E77047000000000000000000000000FA
:1002F00003460B437FD4002243088B4274D3030987
:100300008B425FD3030A8B4244D3030B8B4228D327
:10031000030C8B420DD3FF22090212BA030C8B424D
:1003200002D31212090265D0030B8B4219D300E0ED
:10033000090AC30B8B4201D3CB03C01A5241830B72
:100340008B4201D38B03C01A5241430B8B4201D322
:100350004B03C01A5241030B8B4201D30B03C01A4B
:100360005241C30A8B4201D3CB02C01A5241830AC5
:100370008B4201D38B02C01A5241430A8B4201D3F4
:100380004B02C01A5241030A8B4201D30B02C01A1E
:100390005241CDD2C3098B4201D3CB01C01A524185
:1003A00083098B4201D38B01C01A524143098B420E
:1003B00001D34B01C01A524103098B4201D30B01F7
:1003C000C01A5241C3088B4201D3CB00C01A52411C
:1003D00083088B4201D38B00C01A524143088B42E1
:1003E00001D34B00C01A5241411A00D2014652417A
:1003F000104670475DE0CA0F00D04942031000D399
:100400004042534000229C4603098B422DD3030AED
:100410008B4212D3FC22890112BA030A8B420CD3FD
:10042000890192118B4208D3890192118B4204D326
:1004300089013AD0921100E08909C3098B4201D3A6
:10044000CB01C01A524183098B4201D38B01C01AE0
:10045000524143098B4201D34B01C01A5241030957
:100460008B4201D30B01C01A5241C3088B4201D306
:10047000CB00C01A524183088B4201D38B00C01AB3
:100480005241D9D243088B4201D34B00C01A52418A
:10049000411A00D20146634652415B10104601D317
:1004A0004042002B00D54942704763465B1000D3A1
:1004B000404201B5002000F00BF802BD0029F8D041
:1004C00016E7704700000000000000000000000078
:1004D0007047C0460000000000000000000000005F
:1004E0008446101C62468C46191C634600E0C046D8
:1004F0001FB502F01DF8002801D40021C8421FBD1D
:1005000010B501F06DFF4042013010BD10B502F092
:100510000FF8002801DB002010BD012010BDC046EF
:1005200010B502F005F8002801DD002010BD012003
:1005300010BDC04610B501F093FF002801DC00207B
:1005400010BD012010BDC04610B501F089FF002884
:1005500001DA002010BD012010BDC04600000000DF
:100560008446081C6146FFE71FB500F0F1FC002837
:1005700001D40021C8421FBD10B500F071FC4042FB
:10058000013010BD10B500F0E3FC002801DB0020B5
:1005900010BD012010BDC04610B500F0D9FC0028E8
:1005A00001DD002010BD012010BDC04610B500F0D7
:1005B0007FFC002801DC002010BD012010BDC046DA
:1005C00010B500F075FC002801DA002010BD0120F4
:1005D00010BDC04600000000000000000000000048
:1005E000002B15D1002A13D1002906DB01DC0028DD
:1005F00006D00020C043410802E080210906002007
:1006000007B4024801A14018029003BDC5FEFFFFD8
:1006100003B4684601B5029800F06AF9019B9E4652
:1006200002B00CBC7047C046000000000000000093
:10063000002B11D1002A0FD1002900D1002802D0AF
:100640000021C943081C07B4024802A140180290C7
:1006500003BDC0467DFEFFFF03B4684601B50298A6
:1006600000F06EF8019B9E4602B00CBC7047C0467D
:10067000F0B5CE46474615042D0C2E0080B5070474
:10068000140C3F0C9946030C7E435D436743634360
:100690007F19340CE4199C46A54203D980235B02E0
:1006A0009846C4444B4643435143250C36046544A5
:1006B000360C2404A4195B19591820000CBC904670
:1006C0009946F0BD0000000000000000000000009E
:1006D0009E2110B5C905041CFFF772FF002803D145
:1006E000201C00F05DFF10BD9E21201CC90500F0FC
:1006F00097FD00F055FF80231B069C466044F2E7FF
:1007000070B500220C4B04000D00FFF71DFF002800
:1007100004D12000290002F0B3FD70BD064B002279
:100720002000290002F0F4F902F0AAFD80231B0644
:100730009C466044F1E7C0460000E0410000000034
:10074000F0B557464E464546DE46E0B5040083B058
:100750000D00924699468B4230D82DD049465046DE
:1007600002F03EFF29000600200002F039FF331A94
:100770009846203B9B4633D45A46534693404246C4
:100780001F00534693401E00AF423AD8AF4200D1FB
:100790007BE05B46A41BBD41002B00DA78E0002221
:1007A00000230092019301235A46934001930123B1
:1007B00042469340009328E08242CFD90022002392
:1007C000009201930C9B002B01D01C605D6000988F
:1007D000019903B03CBC90469946A246AB46F0BD99
:1007E000424620239B1A5246DA40414613004A46AD
:1007F0008A40170042461F43534693401E00AF42B3
:10080000C4D900220023009201934346002BD9D083
:10081000FB079C46614672080A437B0846460EE089
:10082000AB4201D1A2420CD8A41A9D410120241947
:100830006D410021013E24184D41002E06D0AB42EF
:10084000EED9013E24196D41002EF8D1009801998E
:100850005B4600196941002B25DB2B005A464446B4
:10086000D3402A00E2401C005B461500002B2BDB26
:1008700026005F46BE40330026004746BE40320099
:10088000801A9941009001919CE7A342B9D880E772
:100890004246202300219B1A00220091019201224E
:1008A000DA40019283E7424620239B1A2A004646FB
:1008B0009A402300F340444613432A00E2401C00C0
:1008C0005B461500002BD3DA2023424626009B1AF4
:1008D000DE402F00B4464646B74066463B003343F1
:1008E000CAE7C04600000000000000000000000051
:1008F000F0B583B016001F000090019102F080FE59
:1009000004000D0002000B0030003900FFF7B0FEBC
:10091000009A019B121A8B41089920000A604B60D3
:10092000290003B0F0BDC046000000000000000038
:10093000F8B54C02640A4746A0464C00C90FCE46A3
:1009400089464146430246005B0A360E240E80B5B6
:10095000C50F9C463200D800C900371B4D4560D0FA
:10096000002F48DD002C00D17CE0FF2E00D183E079
:100970008023DB04194301231B2F07DC0B002022FB
:10098000FB40D71BB9404A1E91410B43C31A5A0181
:1009900000D4A8E09B019C09200002F001FE05386C
:1009A0008440864200DDADE0861B22002020013617
:1009B000F240861BB44023005C1EA3410026134373
:1009C0005A0704D00F221A40042A00D004335A01D7
:1009D00000D48BE00136F2B2FF2E00D18FE09B01F4
:1009E0005B0A5B02D205580AED07104328430CBC92
:1009F00090469946F8BD002F49D1FE24771C3C4211
:100A000000D086E0002E00D0DEE0002800D1D1E04A
:100A10000029E6D0431A5C0100D4F1E00B1A4D46E0
:100A2000CEE7002F4ADD002C3FD0FF2E24D08023BC
:100A3000DB04194301231B2F07DC0B002022FB40A2
:100A4000D71BB9404A1E91410B431B185A014AD586
:100A50000136FF2E53D0012271491A405B080B402A
:100A60001343ADE7002943D0013F431A002F00D1C3
:100A70008DE7FF2E00D07EE76346002B3FD080231A
:100A80006246DB0313435B025B0AFF22A9E7A21B5A
:100A9000002E60D1002878D0013A002A00D1B5E0BC
:100AA000FF2C5DD14D46C446E6E7002920D0013F2A
:100AB0004318002FCAD0FF2EBCD1DDE7002F32D162
:100AC000FE24013634427AD1002A62D1002800D1B6
:100AD000A0E0002900D184E7431800265A0102D57E
:100AE000504A013613405A0700D06BE7DB089C469A
:100AF000FF2EC1D063465B025B0AF2B271E7FF22B0
:100B000000236EE7474B361A23405A0700D059E7B7
:100B1000ECE7441A630161D4002C00D03CE70025C7
:100B2000002200235DE7A21B002E28D100282DD033
:100B3000013A002A70D0FF2CB5D001231B2A07DC14
:100B400003002026D340B21A9040421E9041034336
:100B50005B1826007AE7FF2CA4D08023DB0418431F
:100B600001231B2A07DC03002025D340AA1A90404A
:100B7000421E90410343CB1A4D46260007E7FF2C47
:100B800091D08023DB041843D7E74D46C4462600A6
:100B9000AEE7002887D0002900D16DE780236246A8
:100BA000DB031A4200D167E742461A4200D063E7EE
:100BB000C44661E7002926D04D46434611E7FF2E83
:100BC0009DD043185B088EE700280AD1002900D089
:100BD00068E780230025DB03FF2202E70C1A4D465D
:100BE000DAE6002900D147E780236246DB031A4298
:100BF00000D141E742461A4200D03DE74D4652E758
:100C0000002B00D06FE700250023EAE60B1A4D46C3
:100C10002600BCE64346E4E64318260016E7C04635
:100C2000FFFFFF7DFFFFFFFB000000000000000052
:100C3000F0B54F464646D64644024500C0B5640A64
:100C40000F1C2D0EC60F002D4FD0FF2D55D0802329
:100C5000E400DB041C43002399469A467F3D7B0257
:100C600078005B0A9846000EFF0F002831D0FF285D
:100C700010D08022DB00D2041A43904600217F3836
:100C80002D1A4B4632000B4371489B00C3587A40E3
:100C9000D2B29F46FF3D002B54D10223494619434F
:100CA00032000B007A40033BD2B20C2B04D86949C6
:100CB0009B00CB589F463A00002000246402C305E5
:100CC000600AD207184310431CBC90469946A246BE
:100CD000F0BD002B2BD101234946320019438B0074
:100CE0005D497A40CB58D2B29F46002C13D10423E1
:100CF0009946033B00259A46B1E7002C05D108230D
:100D00009946063BFF259A46A9E70C239946093BDD
:100D1000FF259A46A3E7200002F042FC7625431FF8
:100D20009C4000236D422D1A99469A4697E7180079
:100D300002F036FC4246431F9A402D189046763505
:100D400000219EE703219CE717003A00FF200024C2
:100D5000B4E780240022E403FF20AFE732005346CB
:100D6000022BF1D0032B6CD0012BA5D028007F30B3
:100D7000002846DD630704D00F232340042B00D056
:100D80000434230103D52800344B80301C40FE2856
:100D9000DCDCA401640AC0B290E78023DB031C42C0
:100DA00027D042461A4224D144461C436402640AB6
:100DB0003A00FF2082E73A0044468A46CFE74146A0
:100DC00063014C01A34235D21B200021013D0127C4
:100DD0001E0049005B00002E01DB9C4201D81B1B5A
:100DE000394301380028F3D11C00631E9C410C4399
:100DF000BCE78023DB031C436402640A3200FF204B
:100E00005CE70123181A1B2800DD55E79E352300F7
:100E1000AC40C340611E8C411C43630704D00F23C8
:100E20002340042B00D00434630107D4A401640AD6
:100E3000002043E71B1B1A200121C8E701200024E2
:100E40003CE78023DB031C436402640AFF2035E790
:100E5000C03301080034010834340108FFFFFFF7F4
:100E600070B542004E024C0045026D0A120EC30FCF
:100E7000760A240EC90FFF2A0FD0FF2C11D00120B3
:100E8000A24200D070BDB542FCD18B420DD0002AE9
:100E9000F8D12800451EA841F4E70120002DF1D12A
:100EA000EBE70120002EEDD1E9E70020EAE7C0469C
:100EB00070B54A004E02450244006D0A240EC30F6D
:100EC000760A120EC90FFF2C15D0FF2A0ED0002C67
:100ED00015D1002A01D1002E1CD0002D14D08B4238
:100EE00027D00220013B1840013870BD002EEED003
:100EF00002204042F9E7002DFAD1FF2A0ED0002A45
:100F00000ED1002EEDD00BE00123013999430800EA
:100F10000130EAE70020002DE7D0E2E7002EE7D11C
:100F20008B42DED1944205DD0221581E0840013873
:100F3000DBE70024A24204DCB542D2D80020B5424F
:100F4000D3D2581E012398430130CEE700000000A1
:100F500030B5420044024D02C30F4800640A120E2D
:100F60006D0A000EC90FFF2A17D0FF2808D0002AEB
:100F700017D1002808D1002D06D1002C23D007E07E
:100F8000002DF4D002201EE0002C17D08B421FD081
:100F90000220013B1840013815E0002CF2D1FF2857
:100FA00012D0002801D1002DF2D08B42F0D1824224
:100FB0000FDD0221581E0840013804E001230139E9
:100FC00099430800013030BD002DEED00220FAE731
:100FD0000022904204DCAC42DAD80020AC42F2D2CB
:100FE000581E012398430130EDE7C0460000000081
:100FF000F0B54F464646D64644024500C0B5884641
:10100000640A2D0EC70F002D49D0FF2D4FD080232D
:10101000E400DB041C43002399469A467F3D434687
:1010200042465E02D20F5B00760A1B0E904646D007
:10103000FF2B12D080220020F600D2047F3B164303
:10104000ED186A1C434694464A467B400F2A00D955
:1010500074E0704992008A589746FF35002E54D1AB
:101060004A4602231A4391460220EAE743463400E7
:1010700082465246022A2AD0032A00D1C3E0012A1E
:1010800000D082E0002200246402D205600ADB075F
:10109000104318431CBC90469946A246F0BD002C54
:1010A00027D104239946033B00259A46B7E7002C35
:1010B00019D108239946063BFF259A46AFE7002E33
:1010C00008D14A4601231A4391460120B9E7FF227D
:1010D0000024D9E7300002F063FA431F2D1A9E4026
:1010E000763D0020ADE70C239946093BFF259A4643
:1010F00095E7200002F054FA7625431F9C40002318
:101100006D422D1A99469A4689E74A4603231A43A7
:101110009146032095E73B00ABE780240023E403DE
:10112000FF22B1E78023DB031C4245D01E4243D19E
:1011300033435C02640A4346FF22A5E7200C2404E3
:10114000210C0F00320C3604360C774351434643D2
:10115000504389193A0C5218964203D9802149020A
:10116000884640443F0411043F0CC9198C01661E97
:10117000B441890E2143140C2418A4010C4322010C
:101180003CD50122610814400C4360467F300028A2
:101190001ADD620704D00F222240042A00D0043452
:1011A000220103D560461C4A80301440FE288EDCA4
:1011B000A401640AC2B267E78020C003044364024A
:1011C000640A3B00FF225FE70122101A1B2800DDA2
:1011D00058E762469E3221009440C140621E94410D
:1011E0000C43620704D00F222240042A00D00434AA
:1011F000620105D4A401640A002245E7AC46C4E7B5
:101200000122002440E78022D20314436402640ACE
:10121000FF2239E76C340108FFFFFFF700000000F0
:10122000F8B543025B0ADA00DE4693464A02520AE8
:10123000454690464E4657464446E0B54A0047006C
:101240003F0EE400120EA1469C463E00C50FC90F9A
:10125000BC1AFF2A00D177E0012082465046414067
:101260008D4200D180E0002C51DD002A00D073E0D7
:101270004B46002B00D1DDE0013C002C0FD0FF2FAE
:1012800000D1A5E001231B2C09DC20224946121BBA
:1012900091404B460A00E340511E8A4113435A468F
:1012A000D31A5A0100D4C0E09B019C09200002F02F
:1012B00077F9230005388340864200DDC4E0861BB1
:1012C0001A0020200136F240861BB3405C1EA34169
:1012D000002613435A0704D00F221A40042A00D0D4
:1012E00004335A0100D4A3E00136F7B2FF2E00D137
:1012F000A7E09B015B0A5802FF05400AED0738434F
:1013000028433CBC90469946A246AB46F8BD002C0B
:101310004FD1FE247A1C144200D09CE05A46002F84
:1013200000D003E1002A00D1F4E04A46002AE2D0CE
:101330004B465A46D31A5A0100D405E14B465A4649
:101340000D009B1A0026C5E74846002800D183E718
:101350008D4251D0002CDADDFF2F39D080234A4650
:10136000DB041A4391468DE7002C45DD002A3AD074
:10137000FF2F2DD080234A46DB041A4391460123D8
:101380001B2C09DC20224946121B91404B460A00C7
:10139000E340511E8A4113435B445A0145D501364F
:1013A000FF2E4ED001226F491A405B080B401343B9
:1013B00090E7D41B0D00002F72D15B46002B00D1AB
:1013C00092E0013C002C00D1C5E0FF2A6FD1C44659
:1013D0006346002B35D080236246DB0313435B0258
:1013E0005B0AFF2787E74B46002B23D0013C002CEC
:1013F00077D0FF2FC3D1EBE7002C38D1FE227E1C23
:10140000324200D08CE05A46002F70D1002A00D121
:10141000A6E04A46002A00D16DE75B464B44002611
:101420005A0102D5504A013613405A0700D053E7FB
:10143000DB089C46FF2ECBD063465B025B0AF7B20B
:1014400059E7FF27002356E7474A361A13405A0741
:1014500000D041E7ECE74B465A46D41A63016FD4FB
:10146000002C00D022E700250027002343E7D11BF2
:10147000002F2CD0FF2AAAD080235846DB04184323
:10148000834601231B2908DC5B4620245846CB40B9
:10149000611A8840411E884103434B4416007CE793
:1014A000FF2A94D080235946DB0419438B4601233D
:1014B0001B2C08DC20215B465846E3400C1BA04057
:1014C000411E8841034349461600CB1AE9E65B46B4
:1014D000002B09D001390029DFD0FF2AD1D1C44621
:1014E00076E75B464B4458E7C4461600A2E7002A5D
:1014F00000D16CE74A46002A00D169E78022D20376
:10150000134200D164E74346134200D060E70D0068
:10151000C4465DE74B46002B1AD00D004346EAE671
:10152000FF2E8ED05B464B445B087EE7002AE1D15C
:101530004B46002BEBD180230025DB03FF27DAE6A7
:101540004B460D009C1AB1E60026002B00D06CE73C
:1015500000250023CFE64B46594616005B1AA0E64D
:101560004346C8E6FFFFFF7DFFFFFFFB00000000D2
:1015700042024B0240004900520A5B0A090E000E6B
:10158000FF2806D00020FF2902D11800431E9841F1
:101590007047FE38002AFBD1F4E7C0460000000087
:1015A00041024200C30F490A120E00207E2A03D9CD
:1015B0009D2A02D9094A98187047802000040143E7
:1015C000952A07DC9620821AD1404842002BF3D19D
:1015D0000800F1E7963A9140F7E7C046FFFFFF7F2A
:1015E00070B5002812D0C317C5185D40C40F28007D
:1015F00001F0D6FF9E22121A962A11DCD2B20828D8
:1016000033DD083885406802400A02E000240022E9
:1016100000204002D205400AE4071043204370BD79
:10162000992A0BDD052329001B1AD94003001B331F
:101630009D402B005D1EAB4119430D00052801DDC7
:10164000431F9D402B000A490B406E0709D00F260F
:101650003540042D05D004335D0102D59F220B4097
:10166000121A9B01580AD2B2D3E76802400AD0E7A7
:10167000FFFFFFFB00000000000000000000000072
:1016800070B5041E0DD001F08BFF9E22121A962A0F
:101690000EDCD2B208282EDD083884406002400AF1
:1016A00001E0002200204002D205400A104370BD34
:1016B000992A09DD030021001B3399404B1E9941F3
:1016C00005231B1ADC400C43052801DD431F9C4009
:1016D00023000A490B40650709D00F252C40042C34
:1016E00005D004335C0102D59F220B40121A9B01E6
:1016F000580AD2B2D7E76002400AD4E7FFFFFFFBE7
:10170000F8B54746CE460E034D00760ACC0F410F82
:1017100031438946190380B5490A570F5E000F43CC
:101720006D0DC000760DDB0FB846D2009C4200D193
:10173000A3E0AF1B002F00DC83E0002E00D1C0E04F
:10174000B94B9D4200D14FE1802341461B04194310
:101750008846382F00DD2DE11F2F00DDE7E1202333
:1017600011004646DB1B9E40F9409A400E4341461D
:10177000531E9A41F9404B465B1A99463243871AE9
:10178000B84280414B464142591A0B0200D4D6E080
:1017900049024E0A002E00D1FFE0300001F000FFA8
:1017A0000300083B20223900D21A9E40D1409F40BE
:1017B0000E439D4200DDE9E05D1B6B1C1F2B00DD2D
:1017C000A6E12021C91A3D0030008F408840DD404D
:1017D000791E8F4131002843D940002507437B07FC
:1017E00009D00F233B40042B05D03B1DBB42BF411A
:1017F0007F42C9191F000B0200D477E26A1C8A4B92
:1018000055056D0D9A4200D1A2E0884AFF080A40B2
:101810005007384384465202120B00211203130B67
:101820000A0D12051A43824B2D0513402B435B0012
:10183000E4075B082343604619000CBC90469946B8
:10184000F8BD002F4BD17B4E691C314200D0B7E070
:101850004646494616430143B446002D00D0EEE10A
:10186000002900D1AFE1002E00D0F0E14B46C008C6
:101870005F070743BC46D908D1E0AB1B002B6CDDEA
:10188000002E3ED068498D4200D1B9E180213E0052
:1018900009040E43B046382B00DD1DE11F2B00DC90
:1018A00062E1190046462039CE40202B04D0402169
:1018B000CB1A414699400A4317007A1E9741374395
:1018C0000FE14346134300D19FE07B1E002B00D164
:1018D0008CE155498F4200D186E01F0039E7771B24
:1018E000002D00D0D0E04946014300D158E1791ED7
:1018F000002900D100E24C4CA74200D149E20F0080
:10190000CBE03900114300D181E1591E002900D1FB
:1019100039E1454EB34200D172E10B00BBE7424BC7
:101920009E4200D119E28218824280414946350028
:10193000414440420918CF075208174349087B0722
:1019400000D04EE74807FF080743BC46C90863E0DC
:101950001500002300229C465FE7002B6CD1354B1D
:101960006E1C1E42DBD14B460343002D00D020E10C
:10197000002B00D1CBE13B00134300D0CEE14B461E
:10198000C0085F0738438446D90848E02749ED1A64
:1019900031407B0700D024E7D4E7380001F000FE97
:1019A000030018331F2B00DCFCE63E00083886409D
:1019B0000027FEE6434613431A00571EBA41DEE6EF
:1019C00049464646871A8E1BB84289414942761AD3
:1019D000310200D529E13B0033439C4600D0D9E6D3
:1019E0000021002400251AE04B46C0085F0707438A
:1019F000BC46D90863460B4300D1EFE180221203B5
:101A00000A431203120B084D07E74B46C0085A075A
:101A1000024394463D00D908034B9D42EAD00A0395
:101A20006D05120B6D0DF8E6FF070000FFFF7FFF4D
:101A3000FFFF0F80FE070000731B002D00D185E023
:101A4000D8498E4200D179E180214D4609040D43E9
:101A5000A946382B00DD0EE11F2B00DDA6E1202179
:101A6000C91A05004F4688408F40411E88414946AB
:101A7000DD40D9402F4307438844BF189742924125
:101A800051424144350031E0C6498E4200D1A5E0C3
:101A900080214C4609040C43A146382F00DDBEE0EE
:101AA0001F2F00DDEDE020210500C91B4C468840BA
:101AB0008C40FD40411E884149462C432043F9405B
:101AC0004446611A8846171ABA4292414146524228
:101AD000891A1C00350058E6434613431F007A1E3E
:101AE00097413F1887428041414249440B0200D44C
:101AF00025E7AC4B01359D4200D12AE7AA4A7B0875
:101B00000A4001210F401F43D3071F43510866E6D7
:101B100030001F3DE840202B03D04021CB1A9E40CF
:101B200037437B1E9F4100210743002507E73B0009
:101B30004646203BDE40202F04D040234146DB1B9D
:101B400099400A43571EBA41324318E649460143B9
:101B500000D1FAE0591E002900D137E1914DAB4286
:101B600000D1EBE00B0074E72021C91A16004746AC
:101B70008A408F40511E8A414146DE40D94037435A
:101B800017438944ADE78718494687429B41414442
:101B90005B42C91801250B0200D4D0E60225ADE74F
:101BA0004146D208480710438446C9081C003D003E
:101BB00032E7002B00D0D5E03B00D2087F07174367
:101BC000BC46D90816E7002E00D18CE04146D20869
:101BD0004F073A439446C9081C0020E74146D20803
:101BE0004F071743BC46C9081C0003E7871A4B463A
:101BF0004246B8428041991A4042091A0125C4E57B
:101C00004B46C0085F0738438446D908F2E64A4687
:101C1000C008570738438446D1081D00FCE64946F2
:101C200001430800471EB8414DE7171A4146484690
:101C3000BA42B641091A76428E1B1C00AAE5002959
:101C40002ED1002ECAD1802100240903D6E64946B0
:101C50004646871A8E1BB84289414942711A0E02C4
:101C60003CD5171A41464846BA429241091A524297
:101C7000891A1C00B3E54B4603431F00781E8741B9
:101C8000FBE639004C462039CC40202F04D04021BF
:101C90004D46C91B8D402843411E8841204312E711
:101CA0004946C0084D072843C908002E44D0802566
:101CB0002D03294208D04646F7082F4204D11C00C4
:101CC0003900D20870071043CA00430F1A43C000FE
:101CD0005707C0080743BC46D1088BE63B000B43BF
:101CE0009C4600D02BE60021002498E64B07FF0815
:101CF0001F43BC46C9088FE6171A41464846BA42F8
:101D00009241091A5242891A1C0001253DE53B0007
:101D1000D2087F071743BC46D90880E68718494692
:101D200087429B4141445B42C9180B0200D406E63E
:101D30001D4B0125194002E684465BE64346D20866
:101D40005F073A439446D90854E63900D2087F0722
:101D50001743BC46C9081D005EE60023350000227B
:101D60009C465AE54B465F07D9084346C0081343D3
:101D70003843002BE0D080231B031942A4D04546F2
:101D8000ED081D42A0D14346D20858071043290050
:101D90009AE74146D2084F073A439446C9081C00C7
:101DA00028E6C046FF070000FFFF7FFF19004D46F1
:101DB0002039CD40202B04D04021CB1A49469940F0
:101DC00008430700781E87412F4356E68718494687
:101DD00097429B4141445B42C918DBE60023024D18
:101DE0009C461A0019E5C046FF07000000000000ED
:101DF000F0B557464E464546DE46E0B50F038146F0
:101E00001E0004003B0B480085B092469846400DEA
:101E1000CD0F002800D1B6E08B4B984200D1D2E024
:101E20004346670FDB001F4380231B041F43874B80
:101E300000979B4600239846E400834401933303B4
:101E40001B0B9946730052465B0DF60F002B00D119
:101E500078E07D498B421AD0510F4A467B48D20028
:101E6000114384468022584612046344C31A114326
:101E700052469B460020D2002B0073409A464346B0
:101E80000F2B00D9F4E0724F9B00FB589F464B4646
:101E9000514619436F4B9C46E344002900D0B5E0FE
:101EA000424602231A43904602200022E4E735000E
:101EB000140000910190019B022B00D112E2032B30
:101EC00000D175E2012B1DD0AA46634E5E44002E60
:101ED00000DCE0E1630700D015E2E408009AD301DA
:101EE00005D580265D4BF6001A4000925E445C4B9F
:101EF0009E4223DC009A7605530757021C433F0B92
:101F0000730D03E0AA4600230027002400213F03AD
:101F10003E0B0F0D3F0537431E05524B20001F405F
:101F200053463E437600DB0776081E43310005B07A
:101F30003CBC90469946A246AB46F0BD424B0027BA
:101F40000024E3E74946114359D04B46002B00D10A
:101F500090E1484601F024FB02000B3A08235B4263
:101F60009C4684446346494699401D239B1A524629
:101F7000DA406346114352469A403B4B58449B46D5
:101F80008344002078E71F00274300972FD0434663
:101F9000002B00D15EE1404601F002FB02000B3A4B
:101FA0001D2301009B1A47464A464C4608398F407C
:101FB000DA408C40174300972C4B1B1A9B4600239A
:101FC000984601933BE74F4643461F43009706D18F
:101FD00008239846063B0024834601932FE7434697
:101FE00000930C239846093B8346019327E704237B
:101FF000984600239B460133002401931FE7424685
:1020000001231A4390460120002235E7414603236D
:1020100019438846032049462EE7002380279A4625
:102020003F030024084B71E7802300981B031842EC
:1020300000D1EAE0194200D0E7E00B431F033F0B59
:10204000B2461400004B61E7FF07000001FCFFFFF0
:10205000AC34010801F8FFFFFF030000FFFFFFFEA3
:10206000FE070000FFFF0F80F30300000DFCFFFFE1
:10207000009B994200D2E6E000D1E1E001235B42FF
:102080009C46250000260098E344130E09020B43EA
:102090009946130298464B461C0C1B041B0C21004E
:1020A0000193FEF71BF9019A0B044243290C070028
:1020B00019438A4207D94944013F894503D88A42D6
:1020C00001D9871E4944881A2100FEF707F909043F
:1020D0008C4629046546019A090C424303002943B2
:1020E0008A4204D94944013B894500D805E13F04AF
:1020F0001F43891A43463A00380C00971F0C1304FB
:1021000042461204150C2A001B0C5A4302977B43CB
:10211000039545437843170CBC465B1963449D42C5
:1021200003D980256D02AC4660441D0C28181504A7
:102130001B042D0C5D19814272D36FD0751B091AD7
:10214000AE428041A14E4042081A5E44814500D112
:1021500000E12100FEF7C2F80200019B07005A438C
:102160000B04290C19438A4208D94944013F894587
:1021700004D88A4202D9831E1F004944881A2100CC
:10218000FEF7ACF8019A0C0442432904090C030041
:1021900021438A4207D94944013B894503D88A42F1
:1021A00001D9831E4944039D3C041C432B00891A1A
:1021B0002204120C5343029F200C45437A43784378
:1021C0001F0CBC4652196244954203D980256D020A
:1021D000AC466044150C1B0412041B0C2818D218C2
:1021E000814206D302D001231C4370E6002A00D1AD
:1021F0006DE64944631E494500D296E0814200D213
:10220000ADE000D1DDE01C00EDE78026009F360345
:1022100037433F033F0BAA466D4B77E6AE428DD264
:10222000009B46445A1E46459B415B424B44C9189D
:1022300089455CD2884200D982E07ED000927DE759
:10224000A24200D91AE7009B6508DF0758083D4302
:10225000E6071AE7484601F0A3F903001A00153211
:1022600020301C2A00DC9BE64F46083B9F400024A0
:102270000097A1E6504601F093F903001A001532C9
:1022800020301C2A00DC69E65146083B99400022B8
:1022900073E6012464420121891B382900DD32E6FE
:1022A0001F2966DC009D22002B004A48CA40584482
:1022B000834084401343621E9441CD4023432F004A
:1022C0005A0709D00F221A40042A05D01A1D9A4233
:1022D0009B415B42FF1813003A0262D5012300279D
:1022E000002413E6AA463A4B002700240EE689454F
:1022F000A4D1B0459ED9009220E78A4200D8F6E6E4
:10230000831E4944F3E60F232340042B00D1E4E568
:1023100005235B42A3429B4104345B42E408009ADC
:1023200094469C4463460093D8E51C00814200D04B
:1023300059E7424500D056E7C9E5B54200D87DE7E8
:10234000009B4644023B009346459B415B424B4405
:10235000C918F3E6002E9CDD00240123DFE7434685
:102360005D0045459B415B424B44023CC918A84671
:10237000DCE71F225242961B009A1300F3402029EB
:1023800003D01548584482401443621E94412343AD
:10239000072400271C4007D00F2200271A40042AD8
:1023A00094D17C077F023F0BDB081C430023ADE583
:1023B0008023009F1B031F433F033F0BAA46044B90
:1023C000A4E59045CBD31C00B3E7C046FF03000053
:1023D000FF0700001E0400003E0400000000000093
:1023E000F0B54E464546DE4657461C03E0B5240B85
:1023F0001A4E0F034D00A1465C00DB0F84463F0BD5
:102400006D0DC90F9046640D9B46B5421AD0B4427B
:1024100010D00126A5420ED14F450CD10126C4454E
:1024200009D1594518D0002D05D138430600701E3A
:10243000864100E0012630003CBC90469946A24609
:10244000AB46F0BD3B0001260343F4D1AC42F2D1D0
:102450004B461343EFD1E1E70026ECE7FF0700000E
:10246000F0B54F464646D6464D00C0B50E03C90FDF
:102470008A462C491F035C008046360B6D0D914641
:102480003F0B640DDB0F8D421ED08C4216D0002D09
:102490001ED130438446002C01D13A4323D06246FA
:1024A000002A1AD09A4529D0514602200139084005
:1024B00001381CBC90469946A246F0BD3900114334
:1024C000E5D002204042F4E73043FAD1AC420FD0CD
:1024D000002C0FD13A43E7D00CE00122013B93439B
:1024E00018000130E5E763460020002BE1D0DBE770
:1024F0003A43E6D19A45D7D1A542D5DCA54205DBC2
:10250000BE42D1D808D00020BE42D2D250460123CC
:10251000013898430130CCE7C845C5D80020C845EC
:10252000C7D2F3E7FF070000000000000000000032
:10253000F0B54F464646D6464D00C0B50E03C90F0E
:102540008A462C491F035C008046360B6D0D914670
:102550003F0B640DDB0F8D421ED08C420CD0002D42
:102560001ED130438446002C0BD13A4309D1634637
:102570000020002B2FD009E039001143EFD00220BA
:1025800029E06246002A21D09A4511D05146022006
:102590000139084001381EE03043F0D1AC421FD071
:1025A000002C01D13A43F1D09A45EFD1A542EDDCA0
:1025B000A54205DBBE42E9D816D00020BE420AD2B1
:1025C0005046012301389843013004E00122013BC9
:1025D0009343180001301CBC90469946A246F0BDBA
:1025E0003A43E1D00220F6E7C845CFD80020C845DD
:1025F000F1D2E5E7FF070000000000000000000046
:10260000F0B557464E464546DE46E0B50C038146DA
:102610001F000500230B480087B092469846400DE6
:10262000CE0F002800D17CE07D4B984200D196E08F
:1026300043466C0FDB001C4380237A4A1B041C4377
:102640009446030063440193002398469B46ED00A3
:102650003B031B0B99467A00FB0F5146520D029328
:1026600000D187E06E4B9A4222D06E484B0F8446D1
:10267000019862448446494694446246C9000B432B
:1026800080210192002209040B4351469446C9005F
:1026900032000298424001980130039040460F28D2
:1026A00000D9C7E08000804647465F48C05987464A
:1026B0004A4653465A4813438446019A624401925B
:1026C000002B00D08CE002224146114388469446FC
:1026D0000021DDE7029A1C000D00E3465B46022B59
:1026E0006BD0032B00D1FFE1012B00D065E1002668
:1026F0000024002500212403230B0C0D24051C437A
:102700004A4B3605234033435B00D2075B08134333
:102710002800190007B03CBC90469946A246AB463B
:10272000F0BD1C002C4353D04346002B00D181E167
:10273000404600F035FF02000B3A1D2301009B1AB2
:1027400044464A464D4608398C40DA408D40144391
:10275000374B1B1A0193002398469B4678E74C465B
:1027600043461C432DD108239846063B0025019083
:102770009B466DE74B4601220B43A5D04B46002BF1
:1027800000D147E1484600F00BFF02000B3A1D273D
:10279000BA1A57460100D740524608394B468A407C
:1027A0008B4011003B43019A214F101ABC46020096
:1027B00062440192002294466AE7194E00240025E3
:1027C00098E70C2344469846093B01909B463FE717
:1027D0000423984600230193013300259B4637E7E5
:1027E000032342461A43904603224B4694464FE742
:1027F000320073E78024002224030025084E79E785
:1028000080221203144200D1FCE0134200D0F9E010
:102810001A431403240B029A0D00014E6AE7C046C6
:10282000FF07000001FCFFFFEC340108FFFF0F80F1
:102830000DFCFFFF2F0C2D042D0C28000E0C09049D
:10284000090C4843804608007843814630007843AD
:1028500002902800704384464046000C8246CC44D7
:10286000D444E14507D9029882468020400281463F
:10287000CA44504602906046000C834660460004FD
:10288000844640460004000C804660464044049064
:10289000180C804628001B041B0C58438446180063
:1028A00078438146404678438246404645436046E9
:1028B0004D44070C7D19A94503D98020400281466B
:1028C000CA4460462F0CBA4407043F0C2D04ED198E
:1028D000AB445846270C2404240C059020004843A0
:1028E0007943894639008446000C83467143664328
:1028F0004E445E44B14503D980204002814649449C
:10290000300C814660460004000C84462000584389
:1029100049448146404678433604664484464046EE
:10292000444348467B43070CE4183C19A34203D9AF
:1029300080235B029846C4440598029B8046484623
:102940000004000C43448146AB42AD419B19B342A5
:10295000B64127044F446D42574478198046764269
:102960008B46B146C344D9445745BF41A845AD4104
:102970008B458941B145B6416D427F422F43240CBE
:102980004942764231433C19641849466444C90DB2
:1029900064020C4304995D020D43691E8D41DB0DF9
:1029A0001D434B465B021D43E3017AD501216B08B1
:1029B0000D401D43E3071D4364084F4B0399CE1898
:1029C000002E46DD6B0709D00F212940042905D0D0
:1029D0002B1DAB42AD416D4264191D00E30105D5CD
:1029E000464B03991C408023DB00CE1844498E429D
:1029F00000DDE2E66307ED08640276051D43240B63
:102A0000760D77E680231B031C4324033200240B3E
:102A10003C4E6FE6504600F0C3FD03001A0015322D
:102A200020301C2A00DCB2E65246083B9A400021C6
:102A30001300B8E6484600F0B3FD03001A00153253
:102A400020301C2A00DC78E64C46083B9C400025E0
:102A50007EE60121891B382900DD48E61F2923DC99
:102A6000294B2E009C46039BCE4063441800230054
:102A700085408340681E854133432B43CC40590732
:102A800009D00F211940042905D0191D99429B41F5
:102A90005B42E4180B0021021FD50126002400250B
:102AA00028E6019B039388E71F235B429E1B2300BC
:102AB000F340202905D015498C46039961448C4088
:102AC0002543691E8D412B43072500241D4007D057
:102AD0000F21002419400429D7D165076402240B73
:102AE000DB081D43002605E680231B031C4324034B
:102AF000240B044EFEE5C046FF030000FFFFFFFE6F
:102B0000FE070000FF0700001E0400003E04000056
:102B1000F0B5574645464E46DE46E0B50F037F0A00
:102B2000450F3D43AC465D004E00CC0F690D8A4613
:102B30001F03CC49550F83B0C0007F0AD200760D29
:102B40008046DB0F2F4301928A4500D1C0E05546F5
:102B5000751BA9460125AB465D466B409B469C42D2
:102B600000D190E04D46002D00DCBBE05346002B29
:102B700000D1D5E08E4200D1B5E180231B041F4374
:102B80004B46382B00DD8BE11F2B00DD36E249463A
:102B900020233D005B1A11009A409D40531E9A412C
:102BA0004B46A8464D46DF406346E9404546DB1BA1
:102BB0009C460D431543451BA84280416346414254
:102BC000591A0B0200D40DE149024B0A98464346BC
:102BD000002B00D157E1404600F0E2FC0300083B27
:102BE000202229004746D21A9F40D1409D400F43E2
:102BF0009E4200DD40E19E1B731C1F2B00DDD2E1D5
:102C000020222800D21A390095409140D8406A1EEF
:102C1000954101430D4339000026D9406B0709D087
:102C20000F232B40042B05D02B1DAB42AD416D4231
:102C300049191D000B0200D4D7E0721C894B5605C0
:102C4000760D9A4200D1DFE0874FED080F407807FC
:102C5000284382467A02120B00211203130B0A0D3D
:102C600012051A43814B3605134033435B00E407DA
:102C70005B0823435046190003B03CBC904699467C
:102C8000A246AB46F0BD4D46002D5CDD5346002B01
:102C900000D18BE08E4200D116E280231B041F433B
:102CA0004B46382B00DD8EE11F2B00DCC0E13900E4
:102CB000203BD9404B46202B05D040234D465B1B83
:102CC0009F403A430192019D6F1EBD410D437EE13D
:102CD00067493D0089461543B144002D2ED09B46DF
:102CE0009C4230D0494600294AD1624D711C29428C
:102CF00000D0E1E03D00614615430143AA46002EA5
:102D000000D0EFE1002900D1C5E1002D00D000E2A4
:102D10006346C0085B07184363468246D9086DE0E6
:102D20003B00134300D1C0E04B46013B002B00D1D8
:102D3000C1E1894500D1D6E0994621E701256B40E4
:102D40009B469C42CED14946002900D0D2E0711C5E
:102D50008A46554647490D4235D161460143002E0A
:102D600000D08AE1002900D10CE23B00134300D0DF
:102D70000EE26346C0085A0702439246D9083DE076
:102D80005146891B89465C46002E00D0E4E063462C
:102D9000034300D16BE10B00013B002B00D1E8E1C4
:102DA000304DA94200D1DEE19946DEE03B001343FD
:102DB0007BD04B46013B002B00D14CE1894500D133
:102DC00082E199466CE7274B9A4500D1EDE18218E4
:102DD000824289415646674449427918CD075208D4
:102DE000154349086B0700D01AE74B07ED081D4350
:102DF000AA46B146C9081B4B994527D04B460A0342
:102E00005E05120B760D27E71600002300229A4676
:102E100022E76346C0085E073043D9088246002D8A
:102E200014D080252D03294207D0FE082E4204D15C
:102E30005C463100D20878071043CA00410F1143A5
:102E4000C0004A07C00810438246C90853460B43D6
:102E500000D1EEE1802212030A431203120B014E4D
:102E6000FAE6C046FF070000FFFF7FFFFFFF0F806D
:102E700001F8FFFFFE070000D149F61A39406B0741
:102E800000D0CDE6B1E7280000F08AFB030018333C
:102E90001F2B00DCA4E6083885402F000025A7E69C
:102EA0003A4315006A1E954185E66346C0085A07F5
:102EB00002439246D9089EE76146851ACB1BA84279
:102EC00089414942884619004346C91A0B00884681
:102ED0001B0200D513E10B002B439A4600D076E687
:102EE000002100248AE76346C0085A07024392463D
:102EF000D908ABE753469B1B9946002E00D08EE0C5
:102F00006346034300D1B2E04B46013B002B00D1A6
:102F100070E1AC4DA94500D125E199464B46382BCF
:102F200000DD08E11F2B00DD4EE1494620234E461F
:102F30005B1A6546010098409D40F140431E984150
:102F40000D4305436046F0403F18AD189542894156
:102F50004942C91956463FE09A4B9A4500D1A4E030
:102F6000802361461B0419438C464B46382B00DDF9
:102F7000B2E01F2B00DDE4E0494620234E465B1AF9
:102F80006546010098409D40F140431E98410D4325
:102F900005436046F0403F1A551BAA428941494209
:102FA000791A56460DE63A001F3EF2401600202BD5
:102FB00003D04022D31A9F403D436B1E9D41002108
:102FC000354300260EE73A4315006A1E95412D1839
:102FD00085428041414261440B0200D402E7794BB3
:102FE00001369E4200D110E70122754F6B0839402F
:102FF00015401D43CB071D4349080FE63900203B10
:10300000D9404B46202B05D040234D465B1B9F40AB
:103010003A430192019D6F1EBD410D43CBE5694BC3
:103020009A4542D0802361461B0419438C4675E7BC
:10303000494620233D005B1A9D4011009A40A84656
:103040004D46531E9A414B46E9404546DF400D43ED
:103050001543BC44BBE78518854289416744494212
:10306000791801260B0200D4BCE60226BCE7D20880
:103070007B071A439246F908BDE6002915D063463E
:103080003D005E07D9081543C008002D00D0B8E008
:1030900030438246DAE6002D00D121E77907D208D5
:1030A0000A439246F9085C46A8E67807D20810431E
:1030B0008246F908CAE6851A6346A8428041DF1BAA
:1030C0004042391A01267CE56346C0085B07184375
:1030D00063468246D908B9E6634603431D00681E6D
:1030E000854159E7002900D093E6002D00D17DE00D
:1030F0007907D2080A439246F9085C46A6E6151AF3
:103100006346AA429241FF1A5242BB1A98465C4655
:103110005DE56346851AD91BA8429B415B42C91AEB
:103120000B0247D5151A6346AA429241FF1A524232
:10313000B91A5C4672E5634603431D00681E85416B
:1031400003E76646203BDE404B46202B06D049462F
:1031500040235B1A61469940084380464546691EF4
:103160008D41354318E7D2087B071A439246F90888
:103170006CE6151A6346AA429241FF1A5242B91AE6
:1031800001261EE57807D20810438246F90835E685
:103190008518854289416744494279180B0200D459
:1031A00020E6074B012619401CE600235646002264
:1031B0009A4651E52B000B439A4600D190E611E662
:1031C000FFFF7FFFFF0700006646203BDE404B46C7
:1031D000202B06D0494640235B1A6146994008439C
:1031E00080464546691E8D413543AEE68021002468
:1031F00009032FE685189542924167445142791898
:103200002FE7064380200003014208D0FD08054255
:1032100005D1D2087F073A4316005C462900CA0050
:10322000710F1143F6004A07F60832439246C90867
:103230000CE60023014E9A461A000DE5FF07000038
:1032400070B50C4E0D031C0349005B002D0B490D9E
:10325000240B5B0DB14208D0064900208B4203D1FC
:1032600014432000441EA04170BD05430120002DE1
:10327000FAD1F1E7FF0700000000000000000000A5
:1032800030B5144D0A034B00120B5B0DC90F00241F
:10329000AB4204DD104CA34203DD104BCC182000E0
:1032A00030BD8024640322430D4CE41A1F2C08DD3A
:1032B0000C48C31ADA4013005C420029EFD11C000D
:1032C000EDE7094DE040AC4663449A4013000343E8
:1032D000F2E7C046FE0300001D040000FFFFFF7F71
:1032E0003304000013040000EDFBFFFF00000000AA
:1032F00070B5002818D0C317C5185D40C40F28004A
:1033000000F04EF9164B1B1A5B055E0D0A2820DCF7
:1033100003002A0015339A4013000B22101A2A00CA
:10332000C2401203120B03E00024002600220023F7
:10333000002112031800130B0A0D0A4D12051A433F
:103340002A40330513435B00E4075B08234319005D
:1033500070BD2A000B3882401203120B0023E7E7EE
:103360001E040000FFFF0F800000000000000000AE
:1033700010B5041E12D000F013F9144B1B1A5B0594
:103380005B0D0A281BDC02002100153291400A0067
:103390000B21081AC4402403240B02E0002300245C
:1033A00000220021100024030A0D240B12052243E1
:1033B000074C1B05224013435B00590810BD0B3816
:1033C00084402403240B0022EBE7C0461E040000C7
:1033D000FFFF0F8000000000000000000000000060
:1033E00070B541004602C40FFE20090E4B1C750A41
:1033F000184214D0E0239B006D07360BCB18002138
:103400000A0D280012051C4D32435B052A405B085B
:1034100013435B00E4075B082343190070BD0029D8
:1034200014D1002D1ED0280000F0BAF80A281CDCA8
:103430000B232A001B1ADA40030015339D400F4B63
:1034400012031B1A5B05160B5B0DD8E7002D06D087
:10345000320B802636036D071643094BCFE7084B26
:103460000026CCE700230026C9E703002A000B3B17
:103470009A400025E3E7C046FFFF0F808903000064
:10348000FF07000000000000000000000000000036
:103490004A00F0B50B03520D3D4D5B0A470F561C19
:1034A000C90F1F43C4002E4228D03A4BD518FE2D19
:1034B00008DDFF2200204002D205400AC907104360
:1034C0000843F0BD002D2DDD80010200501E824119
:1034D000FB00640F134323435A0757D00F221A40AF
:1034E000042A00D004338022D2041A404ED0013581
:1034F000EAB2FF2DDDD09B01580ADCE73C43002AED
:1035000006D1002C0BD005239B01580AD2B2D2E77A
:10351000002CCED08020C0033843FF22CBE700220E
:103520000020C8E72B00173322DB80231E261B0454
:103530003B43761B1F2E1DDD02204042451B180019
:10354000E8400500202E04D013488446624493408E
:103550001C4323005C1EA3412B4300255A07BDD109
:103560008020C00418400122A842C4D10200CBE749
:103570000022C8E709481018220084402500834033
:103580006C1EA541F2402B431343E6E72A00BBE73C
:10359000FE07000080FCFFFFA2FCFFFF82FCFFFF94
:1035A0001C2101231B04984201D3000C10391B0A73
:1035B000984201D3000A08391B09984201D3000937
:1035C000043902A2105C40187047C046040302028E
:1035D00001010101000000000000000000000000E7
:1035E00010B5002903D1FFF7DBFF203002E0081CF3
:1035F000FFF7D6FF10BDC04600000000000000002D
:10360000F0B557464E464546DE46E0B50F00002170
:1036100083B006008846002F06DA390000274642AC
:103620008F41012149428846002B07DA4146C943B0
:10363000100088461900002342428B4134003D00AF
:1036400092469946BB426BD868D049465046FFF730
:10365000C7FF834639003000FFF7C2FF5B461B1AE5
:103660009C46203B9B466CD4584651468140604660
:103670000B00514681400A00BB4200D974E0BB42B6
:1036800000D17BE034003D005946A41A9D41002939
:1036900000DA76E0002100200126009001915946D1
:1036A0008E400196614601268E40614600960029B3
:1036B00061D0D90756080E435F08614601220023F6
:1036C0000CE0AF4201D1A6420AD8A41BBD41241987
:1036D0006D410139A4185D41002906D0AF42F0D9EF
:1036E000013924196D410029F8D1009801995B46F0
:1036F00000196941002B4FDB2E002C00DE40634691
:10370000DC405B46002B57DB34005D46AC402300B9
:103710006446A6403200801A994103E0B24294D92F
:10372000002000214346002B04D003000C000021A0
:103730005842A14103B03CBC90469946A246AB46D4
:10374000F0BD6246202351469B1AD940484600915D
:10375000614688400300009960460B435146814012
:103760000A00BB4200D88AE70021002000900191A6
:10377000614600299DD100980199D3E7B142F3D861
:1037800080E7614620260127761A00200021F740B5
:1037900000900191019785E7624620239B1A2A0039
:1037A0009A40260013006246D6402C001E43634612
:1037B000DC405B46002BA7DA6746202362463500D3
:1037C000BC409B1ADD4023002B43A1E70000000012
:1037D00002780B78002A03D0013001319A42F7D0E9
:1037E000D01A704700000000000000000000000038
:1037F0000023C25C0133002AFBD1581E7047000031
:103800007047C046000000000000000000000000FB
:103810007047C046000000000000000000000000EB
:10382000FEE7C046000000000000000000000000AD
:1038300080229446F0B50025104E114C1149124BD0
:103840001248B44499420DD91A0080C880C29142EE
:10385000FBD80139C91A8908013189005B189C42DB
:1038600002D920C39C42FCD81036664504D030688B
:103870007368B168F468E5E7F0BDC0462C3501080F
:10388000B4380020B4380020B43800202480010867
:10389000FEE7C0460000000000000000000000003D
:1038A000FEE7C0460000000000000000000000002D
:1038B00010B500F025F900F06BF80B4C80220B4995
:1038C000200000F01DFA0A4B0122C3612023C254DC
:1038D000084A0949136A303C0B40A061136262B682
:1038E000064800F055FA10BDC8170020E43501085D
:1038F0000002002000ED00E0FFFF00FFAC350108F2
:1039000072B6014BD862FEE7981700200000000055
:10391000F8B58026CE4647461B4DF605EC69726A1F
:10392000A86AA36880B5111A99421DD32F000022FE
:103930001C3790460AE062B62069C84772B6EC6947
:10394000726AA86AA368111A8B420DD8E268C3187C
:1039500091464246AB6223685F60EB61E260BB4226
:10396000E9D100F07DFCE6E708498C4206D0181842
:10397000801A022806D3801800F07AFC0CBC90460E
:103980009946F8BD0220F6E798170020B4170020EA
:10399000054B1A001C32DA611A62012252425A6245
:1039A00000229A627047C04698170020000000006D
:1039B00070B503618023DB050500C260586A0229E7
:1039C00000D20221164E3200F3691C3293421DD000
:1039D000B26A0818841A9A68A24203D911E01B68D7
:1039E000A41A9A68A242FAD35A682B606A601560DA
:1039F0005D60AC609A68141B9C6001235B4273623B
:103A000070BD00F035FCF3699A68EBE7B062F561D0
:103A1000356208182B606B60A96000F019FCEFE7B5
:103A200098170020000000000000000000000000C7
:103A30001C4B10B5D969026881420ED041681C3315
:103A40000A60026851600021C1609A4204D0916806
:103A500083688C466344936010BD180000241C30BA
:103A6000DA615060CC60824218D0886891689B6AA5
:103A70008C46604490608022D205526AD11A8842F6
:103A8000EAD99B1A1818022803D3801800F0F0FB1B
:103A9000E2E70220801800F0EBFBDDE700F0E0FB3E
:103AA000DAE7C04698170020000000000000000080
:103AB00072B62023C35C032B16D0042B18D0002B26
:103AC00010D0012300225B4243622133C25482683A
:103AD0000A4B1B6899689142FBD25A6803604260A6
:103AE0001060586062B670470022436A1A60E8E7C7
:103AF0004268036813605A60E3E7C04698170020E5
:103B00000022034B1B605B609A601B615B61704726
:103B100098170020000000000000000000000000D6
:103B200020230022C2548268054B1B689968914289
:103B3000FBD25A6803604260106058607047C0460C
:103B400098170020000000000000000000000000A6
:103B5000202370B50C4CA569E854206802685460B5
:103B600022600122A061C254EFF30983EA69243B79
:103B70009A4203D82900FCF70BFB70BD0348FFF7FE
:103B8000BFFEA069F6E7C04698170020CC350108B3
:103B900030B5050087B04B1C12D00B4C0B4AA36903
:103BA00001A8FFF705FF2800FFF7D2FF049B002BB9
:103BB00002D001A8FFF73CFFA369586A07B030BDE7
:103BC000FFF7C6FF004CF7E798170020B13A00084E
:103BD0001C4B70B59D6941628268A96804008A42E5
:103BE0000CD82021002060541B6899688A42FBD9B8
:103BF0005A682360626014605C6070BD20220020FF
:103C0000A8541A00126890688142FBD951682A6052
:103C100069600D6055609C6101222023E254EFF33E
:103C20000983EA69243B9A4204D829002000FCF762
:103C3000AFFAE2E70448FFF763FE29002000FCF733
:103C4000A7FADAE798170020CC3501080000000039
:103C5000044B9A69196890688B6898428041404289
:103C60007047C046981700200000000000000000C8
:103C700070B5134D20212B68AC691A6855602A6015
:103C80000122AB615A540023A26863542B001B68C5
:103C900099688A42FBD35A682360626014605C6052
:103CA000EFF30983E269243B9A4204D8A869210012
:103CB000FCF76EFA70BD0348FFF722FEF6E7C04638
:103CC00098170020CC35010800000000000000001B
:103CD000054B10B51A689B6992689B689A4200D898
:103CE00010BDFFF7C5FFFBE798170020000000009C
:103CF00010B5FFF7BDFF10BD000000000000000080
:103D000000238260426301220363C362023303849F
:103D10002033C254054B81615A69036142611061CD
:103D200058610300283383627047C046981700200B
:103D3000826841681300383B10B5D96111000469ED
:103D40005C39D9600C614469103A4C610D4C0C62CD
:103D50000168022499612021C06898605C540021A8
:103D60001F341955586301201963D9622231585400
:103D7000054948691961586103614B611800126077
:103D800010BDC046B10100089817002000000000D7
:103D90004368826810B5934204D2552119700133EB
:103DA0009A42FBD172B6FFF7C3FF00210400FFF770
:103DB0000FFF62B6200010BD0000000000000000F0
:103DC00070B54518A84205D2040055262670013466
:103DD000A542FBD172B63839441821002439E1607C
:103DE000E0610B61049B20004B610E4B0B620023D2
:103DF000A260626301222363E362023323842033DF
:103E0000E254094B0021A361084B5A6923616261A6
:103E100014615C6123002833A362FFF7D9FE62B608
:103E2000200070BDB1010008DC35010898170020A2
:103E300072B62222835C013B8354026A064B134014
:103E40000F2B01D062B67047026943691A6102699B
:103E5000536162B6F7E7C046FF00FF0000000000B4
:103E60000D4B70B59C6925006062A06A2835A84298
:103E700006D00368A362FFF753FEA06AA842F8D1F8
:103E80002223E35C002B03D16269236913615A6129
:103E90000F20FFF75DFE70BD9817002000000000A6
:103EA00010B572B6FFF7DCFF10BDC0460000000081
:103EB00070B5040072B62023C35C0F2B07D0074BEC
:103EC000826A9B691A6083620920FFF741FE656A76
:103ED00062B62000FFF7ACFF280070BD98170020E5
:103EE00010B572B6074B9B695C6B9A68A24201D011
:103EF000824200D298605863FFF7EAFE62B6200063
:103F000010BDC0469817002000000000000000000F
:103F100010B5010072B60820FFF73AFE62B610BD78
:103F2000064B10B59B69002905D003605862032039
:103F3000FFF72EFE10BD01204042FBE7981700203E
:103F4000036810B5002B05D00022026059621800EA
:103F5000FFF7E6FD10BDC0460000000000000000B5
:103F600010B500290AD0074B42689B6918605A6057
:103F7000136043600420FFF70BFE10BD0120404298
:103F8000FBE7C0469817002000000000000000007A
:103F9000036810B5984206D01A68026050605962F2
:103FA0001800FFF7BDFD10BD00000000000000007C
:103FB00070B5040000680D00844208D003682360D7
:103FC0005C604562FFF7ACFD20688442F6D170BDAD
:103FD00072B6024B186962B67047C0469817002047
:103FE00072B6044B0069C31A5A1E93415B421840D3
:103FF00062B6704798170020000000000000000023
:10400000002300604060836003617047000000008F
:10401000F8B50500274B80689C6900283AD0A0427B
:1040200034D0A2688368202693421CD28260835DCC
:10403000002B37D0062B16D1416803680B605960FE
:10404000416A0B0002E09F68974202D31B689942C5
:10405000F9D15A6803604260106058608868A268AD
:1040600083689342E2D32B0003E09A68A1688A42F6
:1040700002D31B689D42F8D15A6823606260062013
:1040800014605C606562FFF763FD02E02B69013339
:104090002B61F8BD2B69AC6001332B61236BEB60A6
:1040A0002563F6E74268036813605A60FFF738FD3E
:1040B000D9E7C0469817002000000000000000006B
:1040C00010B572B6FFF7A4FF62B610BD0000000085
:1040D000164B70B59D6972B603695A1E0261002ABB
:1040E00020D1C36804682B6384421DD0696B002B08
:1040F00009D01A68934203D09268914200D211000D
:10410000DB68002BF5D10123A960036123680360FC
:104110005860236B8460C36020632000FFF700FDBC
:10412000FFF7D6FD62B670BDA260FBE798170020CE
:10413000C36A10B519432023C162C35C0A2B0BD09C
:104140000B2B00D010BD436A19408B42FAD10023DB
:104150004362FFF7E5FCF5E7436A0B42F2D0002328
:104160004362FFF7DDFCEDE7000000000000000007
:1041700070B5046806000D00A0420ED0E3682B4322
:10418000E360002D02D022691A4203D0A168606862
:10419000FFF7CEFF2468A642F0D170BD00000000FA
:1041A00080B500AFEFF30983203383F3098862B64B
:1041B000BD4680BD000000000000000000000000BF
:1041C000B0B500AF0F300ED072B6EFF30984203CCB
:1041D00084F3098880235B04E361FFF739FD00283D
:1041E00003D0034BA361BD46B0BD024BA361FAE708
:1041F000BD010008C0010008000000000000000030
:1042000010B501F06DFB0D4801F082FE00F0E8FBF7
:1042100000F006FC00F03CFC00F092FC00F010FD09
:1042200000F07EFF00F0ACFF00F03AFE00F0B8FCBA
:1042300002F0A6FE00F004F810BDC04620370108C9
:1042400010B501F08DFC10BD000000000000000062
:1042500080230022DB0558631A610232DA6070475E
:1042600080230022DB05DA607047C04600000000B2
:104270008023DB0558637047000000000000000049
:1042800030B51D00002404325543C361039B4D1912
:10429000C362049B45610060406084600161C1604D
:1042A0008261016244628462036330BD00000000E9
:1042B0000023022110B5026A83600261C26043627A
:1042C00083624942FFF774FE10BDC0460000000043
:1042D000C3680269934201D0181D704782680020AC
:1042E000002AFAD1F8E7C0460000000000000000F4
:1042F000C36810B519608268013282608269944691
:1043000042696344C360934201D3036AC3600021DE
:10431000FFF73EFE10BDC046000000000000000098
:1043200070B504000D0005E029002000FFF718FE1D
:10433000002809DBA368002BF6D000202269131D9A
:10434000126863629B18A36270BDC0460000000043
:1043500070B5040072B6436A002B1CD0A26A1D78A7
:1043600001336362934213D3A269A3689446013B6D
:10437000A3602369626963442361934201D3236A82
:10438000236100236362E36A002B01D02000984779
:1043900062B6280070BDFFF7C3FF051EF8D1636A3F
:1043A000DCE7C04600000000000000000000000044
:1043B000F0B557464546DE464E46E0B5040083B0AC
:1043C0000F0090469A4672B68023DB055A6A9B46D8
:1043D0005244019252460023013A00260092994627
:1043E00023E0380040220EF073FE636A403740330A
:1043F00063624036A26A9A4213D8A269A3689446BF
:10440000013BA3602369626963442361934201D342
:10441000236A23614B466362E36A002B01D02000CC
:10442000984762B646452DD272B6616A002912D00D
:104430004246A36A951B5B1A9D4200D91D00402D80
:10444000CFD838002A000EF043FE636A7F195B194B
:1044500063627619CEE7009B03330CD85B46596A3A
:10446000019B591A8A450CD32000FFF759FF0028F9
:1044700007D1616ADCE751462000FFF751FF0028B1
:10448000F7D062B6300003B03CBC90469946A246D5
:10449000AB46F0BD0000000000000000000000007E
:1044A00010B51C008360C36100230432544343628F
:1044B0008362029B0C19C362039B00604060016130
:1044C000C160446182610162036310BD00000000AD
:1044D000C36902218360036A10B50361C3600023CE
:1044E000494243628362FFF763FD10BD0000000094
:1044F0000369C2689A4203D0180008C80B6070476D
:1045000082680020002AFAD1F6E7C04600000000C9
:104510008269836894460133836003694269634416
:1045200010B50361934201D3036A03610021FFF7D1
:104530002FFD10BD00000000000000000000000082
:1045400070B504000D0005E029002000FFF708FD0C
:1045500000280ADBA368002BF6D0E36800201A1DB0
:104560006262A26994466344A36270BD00000000C9
:1045700070B504000D0072B6436A002B20D01D7088
:10458000636AA26A01336362934216D3A269E36845
:10459000043A1A60A268013AA260A269944662696C
:1045A0006344E360934201D3236AE36000236362C0
:1045B000E36A002B01D02000984762B6002070BD4E
:1045C0001100FFF7BDFF002801D1636AD7E762B68B
:1045D000F5E7C046000000000000000000000000F9
:1045E000F0B557464546DE464E46E0B5040083B07A
:1045F0000F0090469A4672B68023DB055A6A9B46A6
:104600005244019252460023013A002600929946F4
:1046100026E0390040220EF05BFD636A40374033EC
:1046200063624036A26A9A4216D8A269E368043AE5
:104630001A60A268013AA260A26994466269634462
:10464000E360934201D3236AE3604B466362E36A0B
:10465000002B01D02000984762B646452DD272B695
:10466000606A002812D04246A36A951B1B1A9D421D
:1046700000D91D00402DCCD839002A000EF028FDAD
:10468000636A7F195B1963627619CBE7009B03337A
:104690000CD85B46596A019B591A8A450CD32000F5
:1046A000FFF74EFF002807D1606ADCE75146200083
:1046B000FFF746FF0028F7D062B6300003B03CBCDD
:1046C00090469946A246AB46F0BDC04600000000A9
:1046D0000300C268196900208A4200D070479968B7
:1046E0000029FBD0596A0029F8D00439891AF5D07D
:1046F000116099680139996099698C4659696244D9
:10470000DA608A4201D31A6ADA60002201205A6212
:10471000E4E7C046000000000000000000000000C8
:1047200010B50024C361029BC16081614161891899
:104730000060406084600161036210BD0000000001
:104740004369826910B5934211D082680132826058
:104750005A1C4261197043690269934204D20021D4
:10476000FFF716FC002010BDC3684361F7E78268BD
:10477000002AEAD001204042F5E7C04600000000D0
:1047800070B504000D0072B605E029002000FFF7A7
:10479000E7FB002816DBA368002BF6D0A368A2690C
:1047A000013BA360531CA36115782269934201D396
:1047B000E368A361E369002B01D02000984762B64B
:1047C000280070BD62B6FCE7000000000000000099
:1047D000F0B557464E464546DE46E0B59A46C369B3
:1047E00083B004000E001500994672B68023DB05E5
:1047F0005A6A00275244019252469B46013A00925F
:10480000A368002B1ED0A368013BA360A3695A1CB8
:10481000A2611B78721C33709046A369226993428F
:1048200001D3E368A3614B46002B01D02000C847A9
:1048300062B6013D0137002D13D072B6A36846461B
:10484000002BE0D1009B033313D85B46596A019BD0
:10485000591A8A4504D32000FFF782FB0028CFD0E5
:1048600062B6380003B03CBC90469946A246AB46BF
:10487000F0BD51462000FFF773FBEFE7000000009A
:10488000C361009BC1608161416189180060406023
:1048900082600161036270470000000000000000B8
:1048A00070B504000E00150072B605E02900200066
:1048B000FFF756FB002817DBA368002BF6D0A36890
:1048C000013BA36063695A1C62611E7063692269BF
:1048D000934201D3E3686361E369002B01D02000B8
:1048E000984762B6002070BD62B6FCE70000000089
:1048F0008369426910B59A4210D0826801328260A1
:104900005A1C82611C7803699A4204D20021FFF785
:104910003FFB200010BDC3688361F7E78268002A6F
:10492000EBD001204042F5E700000000000000004D
:10493000F0B557464E464546DE46E0B59A46C36951
:1049400083B004000E001500994672B68023DB0583
:104950005A6A00275244019252469B46013A0092FD
:10496000A368002B1ED0A368013BA360731C98466C
:1049700063695A1C626132781A70636922699342D2
:1049800001D3E36863614B46002B01D02000C84788
:1049900062B6013D0137002D13D072B6A3684646BA
:1049A000002BE0D1009B033313D85B46596A019B6F
:1049B000591A8A4504D32000FFF7D2FA0028CFD035
:1049C00062B6380003B03CBC90469946A246AB465E
:1049D000F0BD51462000FFF7C3FAEFE700000000EA
:1049E00010B501F0E5F810BD000000000000000067
:1049F00001230370002343607047C046000000009D
:104A000010B5040072B6416001F032F90223237040
:104A100062B610BD000000000000000000000000B1
:104A200010B501F02DFE10BD0000000000000000D8
:104A300001230370002343607047C046000000005C
:104A400010B5040072B6416001F02AFE0223237003
:104A500062B610BD00000000000000000000000071
:104A600010B572B60323037001F052FE62B610BD9A
:104A7000042310B50370040001F062FE02232370CA
:104A800010BDC04600000000000000000000000053
:104A900010B501F025FC10BD000000000000000072
:104AA000012310B50370002343600C30FFF7A8FA10
:104AB00010BDC04600000000000000000000000023
:104AC00010B5040072B6416001F01AFC0223237095
:104AD00062B610BD000000000000000000000000F1
:104AE00010B5040084B072B60020A06003302070BE
:104AF000089802900798019006980090200001F015
:104B00002FFC431C5A1E934102225B429343053300
:104B1000237062B604B010BD000000000000000069
:104B200010B50C30FFF7CCFA10BDC04600000000F5
:104B300010B50C30FFF7CCFA10BDC04600000000E5
:104B400010B501F0CDFC10BD000000000000000019
:104B500001230370002343607047C046000000003B
:104B600010B5040072B6416001F0DAFC0223237034
:104B700062B610BD00000000000000000000000050
:104B800010B5040072B601F003FD0323237062B672
:104B900010BDC04600000000000000000000000042
:104BA00010B501F03DFC10BD000000000000000049
:104BB0007047C04600000000000000000000000038
:104BC00010B50C30FFF704FE10BDC0460000000019
:104BD000012310B50C305B42FFF7FAFD10BDC04653
:104BE00010B53030FFF7A4FE10BDC0460000000035
:104BF000012310B530305B42FFF79AFE10BDC0466E
:104C000010B50C30FFF7BCFD10BDC0460000000021
:104C1000012110B50C304942FFF7B2FD10BDC0466E
:104C200010B53030FFF73CFE10BDC046000000005C
:104C3000012210B530305242FFF732FE10BDC0469F
:104C400010B501F005FE10BD0000000000000000DE
:104C500030B5150002000B000C49040002C242608E
:104C60000100012283B0027254310C3000940F32E3
:104C7000FFF756FD210020006431303000942B00F6
:104C80001022FFF7FDFD03B030BDC046FC35010822
:104C9000436970B504000D00002B07D020002900E7
:104CA0000C30FFF74DFD00280BDB70BD04300421F4
:104CB000FFF75EFA200029000C30FFF741FD0028C5
:104CC000F3DA201D8021FFF753FAEEE70000000021
:104CD00030B5BE25046B6D00625983B01368197836
:104CE000042902D1217A022901D003B030BD117903
:104CF00001228A401B891342F7D1200001A94030CC
:104D0000FFF7F6FB021EF0D0635919791868019B72
:104D100000F09EFAE9E7C046000000000000000035
:104D200070B5BE25046B6D006259136819780429AB
:104D300002D1217A022900D070BD517901228A4026
:104D40005B891342F8D120000C30FFF7C1FA021E34
:104D5000F2D0635959791868802300F061FAEBE7C3
:104D600070B50400BE20400020580068057800207F
:104D7000042D00D070BD20000C30FFF719FBF9E7BF
:104D800070B50400BE20400020580068057800205F
:104D9000042D00D070BD20004030FFF721FCF9E762
:104DA000BE235B00C35810B51B681B78042B03D1CE
:104DB0000C30FFF7CDFA10BD02204042FBE7C046A1
:104DC000BE235B00C35810B51B681B78042B05D1AC
:104DD00001210C304942FFF7BBFA10BD02204042CE
:104DE000FBE7C046000000000000000000000000DB
:104DF000BE235B00C35810B51B681B78042B03D17E
:104E00004030FFF7B5FB10BD02204042FBE7C04633
:104E1000BE235B00C35810B51B681B78042B05D15B
:104E2000012240305242FFF7A3FB10BD0220404256
:104E3000FBE7C0460000000000000000000000008A
:104E40000300BE204000185810B500680478002008
:104E5000042C00D010BD0C33180001235B42FFF777
:104E6000A7FAF7E7000000000000000000000000C3
:104E70000300BE204000185810B5006804780020D8
:104E8000042C00D010BD4033180001235B42FFF713
:104E9000A7FBF7E700000000000000000000000092
:104EA0007047C04600000000000000000000000045
:104EB00003000F4A10B504C343600123040001003E
:104EC00003720C4B82B0009374310C3001940123B7
:104ED0008022FFF7D5F921002000074BF83100931D
:104EE0004030019401238022FFF7DAFA02B010BDAE
:104EF0001C360108214D0008D14C000800000000BC
:104F00000A6872B60B7909339B00D31858604B7945
:104F100011339B0098508B79002B03D009339B00F1
:104F2000D2185060BE235B00C1507B3BFF3B037235
:104F300062B67047000000000000000000000000A2
:104F400010B5040002210430FFF712F920000C30E4
:104F5000FFF7AEF920004030FFF7BAFA10BDC046A7
:104F600070B5050004000C352800FFF7A1F92000FA
:104F70004030FFF7ADFA201D0121FFF7F9F82800B6
:104F8000FFF7A6F9BE235B00E358020059791868C1
:104F9000802300F045F970BD000000000000000013
:104FA0007423C15C143B02000B400020202B00D076
:104FB00070475533D35C202BFAD3212B06D8074BEF
:104FC0001067936607230120D366F1E7222BEFD108
:104FD0009066D06610670120EAE7C0460004002012
:104FE00070B5BE256D00425982B01368040019786F
:104FF000042902D1017A022901D002B070BD1179D1
:1050000001228A401B891342F7D106004036300046
:10501000FFF75EFB0028F0D001A93000FFF768FA27
:105020006359020019791868019B00F011F9E4E74F
:105030000B00F0B509339B00C3185C6883B0050012
:105040000E00002C19D072B6B700201D0821EF19F0
:10505000FFF78EF8FB6840345B691B68002B1FD19B
:1050600001A92000FFF744FA002808D00200019BA4
:105070003100280000F0ECF862B603B0F0BDFA6829
:1050800053691B68002BF7D0128A013A1342F3D1FF
:105090002A00002374323100280000F0D9F8EBE731
:1050A0002000FFF735FA01A92000FFF721FA0028B8
:1050B000DCD1E4E700000000000000000000000078
:1050C0001131890070B50C58002C20D072B6BE2664
:1050D0002500201D04217600FFF74AF8A3590C355E
:1050E0001A685B79280002339B00D3185B689B69C0
:1050F0005968FFF7FDF82800FFF7EAF8021E05D00F
:10510000A35959791868802300F08AF862B670BDF7
:105110007047C046000000000000000000000000D2
:1051200010B501F06DFA10BD000000000000000095
:10513000012310B503700023436083600C30FEF739
:105140005FFF10BD00000000000000000000000034
:10515000762310B50400C25C0833C25401F028FD68
:1051600063681B68002B02D00121200098470323AD
:10517000237010BD000000000000000000000000CF
:1051800010B501F0E5FC10BD0000000000000000BB
:1051900001230370002301004360030000222C332D
:1051A00048311A60DA6104338B42FAD18260704769
:1051B00010B5040072B600234160C360036143610F
:1051C0008361C36103624362836201F0C9FC02230D
:1051D000237062B610BDC046000000000000000051
:1051E0008B1C9B0070B5C318050050690E0014009D
:1051F0005A60002803D0102200210DF079FFA06929
:10520000002803D0102200210DF072FF3100280089
:1052100001F0DEFC70BDC046000000000000000090
:1052200070B501258D4044892C4344818C1CA40019
:1052300004196468A46923600023A260636001F01C
:10524000AFFD70BD00000000000000000000000085
:1052500070B501258D4004892C4304818C1CA40069
:1052600004196468646923600023A260636001F02C
:10527000BFFD70BD00000000000000000000000045
:10528000022310B56422037000230400C367836007
:10529000C360036143618361C361036243628362EC
:1052A000835401F015FD63681B68002B02D00021B8
:1052B0002000984710BDC04600000000000000001C
:1052C00005230370436810B51B68002B01D0032130
:1052D000984710BD00000000000000000000000022
:1052E00004230370436810B51B68002B01D0042110
:1052F000984710BD00000000000000000000000002
:10530000F8B500226423C25402000400743201F094
:1053100027FD63689B68002B2DD02000984700284C
:1053200029D07423E06EE35C7B22A15C013AA25C8D
:1053300009020A43824201D21000E2665BB2002BEE
:1053400000DA99E0002800D174E064230422E254DA
:1053500072B601216389E26E0B436381E368A16E3B
:105360009B691A60002299605A600021200001F0B8
:1053700017FD62B64EE074276026E35D1E4037D10C
:1053800075227F21A55C0A002D021A401543C02218
:105390009200954200D1CCE019D9C022D2009542AA
:1053A00000D1E6E037D990221201954200D1F8E011
:1053B0008E4A954258D080221201954218D122007F
:1053C0007F32A26601222667E2660120ACE7022D49
:1053D00000D18AE03CD980225200954200D19AE067
:1053E0000232954204D17622A25C002A00D169E003
:1053F0000021200001F05CFD0021200001F040FDB3
:1054000063681B68002B02D00521200098476423A5
:105410000622E254F8BD764A954200D197E0FF3269
:10542000FF329542E4D1734AA666E66622675BB214
:10543000002B39DB64230522E25472B60122238952
:10544000134300222381E3685B699A601A6024E0B9
:10545000002D07D122007C32A26602222567E26677
:10546000022061E7012DC3D1634A0220A266022215
:10547000E2660022226757E7002815D06423012244
:10548000E25472B601212389E26E0B432381E36863
:10549000A16E5B691A60002299605A6000212000A9
:1054A00001F0A6FC62B6B5E764230322E25472B6AB
:1054B00001226389134300226381E3689B699A6038
:1054C0001A6051E70F217832A25C114008D052B225
:1054D0002000002A00DA7FE001F002FD7423E35C83
:1054E0000022A266E2662267A1E778230F21E35C2F
:1054F000200019405BB2002B63DB01F009FC01289E
:1055000063D0022800D073E73C4BE066A3662667B1
:10551000E35D022008E77622A25C012A00D067E75B
:105520007C210220625A82436252A666E6662667A2
:105530007DE77622A25C012A00D059E77C21022077
:10554000625A02436252A666E66626676FE77622D3
:10555000A25C002A00D04BE70F217832A25C1140F8
:10556000BED052B22000002A3BDB01F089FCE35D93
:10557000B6E77923E25C013BE35C12021343772137
:1055800076226068A25C4568615C2000A84700281C
:1055900000D12DE743680068A366E0662667E35DF7
:1055A000C2E67622A25C6254511E8A410332227006
:1055B00062681268002A93D0022120009047E35DC0
:1055C0008EE701F0BDFB01289BD10D4BE566A3667C
:1055D0002667E35D0220A7E601F09AFC7423E35CF2
:1055E0007EE701F065FCE35D7AE7C046020C00004F
:1055F00002030000515100086036010858360108C6
:105600005C360108000000000000000000000000FF
:10561000642310B5C35C0400062B14D8294A9B00F0
:10562000D3589F46002101F043FC0021200001F0E7
:1056300027FC63681B68002B02D0052120009847D7
:1056400064230622E25410BD7B23E25C013BE35C51
:10565000C06E12021343984205D2E368198AFAF722
:105660003DFE00291BD064230322E25472B60122BE
:1056700063890021134300226381E36820009B6952
:105680009A601A605A6001F08BFB62B6DBE7036F29
:10569000002B00D0984764230022E254D3E772B66F
:1056A00001222389200013432381E3685B69996009
:1056B0001960596001F09CFB62B664230222E25437
:1056C000C1E7C0463C3601080000000000000000B1
:1056D000642110B5425C0400062A13D801239340CC
:1056E00067221A4222D15F3A1A400CD0C3689B69E4
:1056F0005B68002B06D1036F002B00D09847642312
:105700000022E25410BDDB06FCD50523435472B6DB
:10571000012103890B430381C36800215B699A60FF
:105720001A605A6001F064FB62B6EBE7002101F0F9
:10573000BFFB0021200001F0A3FB63681B68002B66
:1057400002D005212000984764230622E254D9E7BD
:105750000F4A70B594460322FF25C0260240D200AE
:1057600095408901914083089B006344B6009C5991
:105770001F22AC430C439C51012302409340C022A2
:1057800040098000604452008350036070BDC046F1
:1057900000E100E000000000000000000000000048
:1057A000242370B5184C75466269E05C11680B00E3
:1057B0000F21C34019400CD00E0025238640E35C26
:1057C0005660124ADB009E58002E02D0D31858684B
:1057D000B0473823A26AE05C11680B000F21C34078
:1057E00019400CD03923E35C0C0084405460074A14
:1057F000DB009C58002C02D0D3185868A047280022
:10580000FEF7DEFC70BDC0466436010800180020BB
:105810004C2370B52E4C7546E26BE05C11680B00B2
:105820000F21C34019400CD00E004D238640E35C8D
:105830005660284ADB009E58002E02D0D3185868C4
:10584000B0476023226DE05C11680B000F21C3405C
:1058500019400CD00E0061238640E35C56601D4A5F
:10586000DB009E58002E02D0D3185868B04774232E
:10587000626EE05C11680B000F21C34019400CD030
:105880000E0075238640E35C5660124ADB009E588A
:10589000002E02D0D3185868B0478823A26FE05C6E
:1058A00011680B000F21C34019400CD08923E35C21
:1058B0000C0084405460074ADB009C58002C02D046
:1058C000D3185868A0472800FEF77AFC70BDC04680
:1058D00064360108001800200000000000000000ED
:1058E0001B4B01219A6A0022494210B599629A62C3
:1058F000186919611A61D86816490143D960802175
:10590000DA60D86949050143D9618021124849000C
:10591000046821430160C020196A800001400138F9
:10592000FF38814203D08021490219621A62802225
:10593000074B1202196A114207D18021186A8900A7
:1059400001431962196A0A431A6200F081F810BD16
:1059500000100240FFFFBFFF007000400000000089
:1059600001212C4A13680B4313600131136819425B
:10597000FCD0032153688B43536053680931536053
:10598000244A53680B40FCD1F92110680140116092
:1059900001215360536B0B4353631E4A0131536B18
:1059A0001942FCD08023516B5B020B43802153636F
:1059B000184A8902536B0B42FCD00121536A0B43F6
:1059C0005362144A0131536A1942FCD0E523DB04C7
:1059D00053600023D3621363802311685B040B437D
:1059E000802113600B4A890413680B42FCD01121FB
:1059F000094B196053680F390B435360054A0A314C
:105A000053680B40082BFBD1012193690B43936131
:105A10007047C04600100240002002400000000015
:105A20000F21084B10B51A687446114006D0064A7B
:105A300059601368002B01D0506898472000FEF78A
:105A4000BFFB10BD00000240001800200000000055
:105A500000220B4B10B51A600A4B0B4A1C000B4876
:105A60008C34002100E05868143301601160083262
:105A7000A342F8D10122064B52425A6010BDC046E3
:105A80003818002064360108001800200800024081
:105A900000000240000000000000000000000000C4
:105AA000F8B5474698460123CE461D0080B5040050
:105AB000407C1C4F85403E6889462E422FD11A49B2
:105AC000C0008C464250414660444160710603D19B
:105AD0001649486903434B6163689C4618680F2365
